:100000000C9446000C9465000C9465000C946500FB
:100010000C9465000C9465000C9465000C946500CC
:100020000C9465000C9465000C9465000C946500BC
:100030000C9465000C9465000C9465000C946500AC
:100040000C9465000C9465000C9465000C9465009C
:100050000C9465000C9465000C9465000C9465008C
:100060000C9465000C9465000C9465000C9465007C
:100070000C9465000C9465000C9465000C9465006C
:100080000C9465000C9465000C94650011241FBE4F
:10009000CFEFD0E4DEBFCDBF11E0A0E0B1E0ECEAED
:1000A000F4E000E00BBF02C007900D92A031B10751
:1000B000D9F721E0A0E1B1E001C01D92A231B20761
:1000C000E1F70E9437020C9454020C940000CF9385
:1000D000DF9300D01F92CDB7DEB789837B836A831D
:1000E00089818A3031F48A819B81BC018DE00E9434
:1000F000670080EC90E0FC018081882F90E08072A6
:100100009927892BB1F386EC90E02981FC012083AB
:1001100080E090E00F900F900F90DF91CF910895C5
:10012000CF93DF931F92CDB7DEB780E290E0FC0162
:100130008081809589838091100190911101823096
:10014000910509F4BFC08330910528F4009759F058
:100150000197B1F058C18330910509F46AC0049742
:1001600009F4F9C050C188E290E020910E01FC0131
:10017000208381E090E090931101809310014FC1A2
:100180008981882F90E083709927892B39F481E049
:1001900090E090931101809310013AC18981882FDA
:1001A00090E0837099270197B9F482E090E09093F2
:1001B00011018093100180910E01893008F028C14F
:1001C00080910E018F5F80930E0188E290E0209174
:1001D0000E01FC0120831CC18981882F90E083706F
:1001E00099270297B9F483E090E0909311018093EE
:1001F000100180910E01882309F40AC180910E013B
:10020000815080930E0188E290E020910E01FC0164
:100210002083FEC084E090E0909311018093100150
:1002200010920E0188E290E020910E01FC012083E3
:10023000EFC08981882F90E083709927892B39F44A
:1002400081E090E09093110180931001E3C08981D7
:10025000882F90E0837099270197B9F482E090E0AD
:10026000909311018093100180910E01893008F064
:10027000D1C080910E018F5F80930E0188E290E0E3
:1002800020910E01FC012083C5C08981882F90E058
:1002900083709927029739F483E090E090931101DD
:1002A00080931001B7C084E090E090931101809397
:1002B000100110920E0188E290E020910E01FC01E5
:1002C0002083A8C08981882F90E083709927892B8B
:1002D00039F481E090E090931101809310019CC06B
:1002E0008981882F90E083709927019739F482E003
:1002F00090E090931101809310018EC08981882F26
:1003000090E0837099270297B9F483E090E090938E
:1003100011018093100180910E01882309F47CC0A3
:1003200080910E01815080930E0188E290E020912F
:100330000E01FC01208370C084E090E090931101D5
:100340008093100110920E0188E290E020910E013E
:10035000FC01208361C08981882F90E083709927F8
:10036000892B39F481E090E0909311018093100182
:1003700055C08981882F90E0837099270197B9F43F
:1003800082E090E0909311018093100180910E0122
:10039000893008F043C080910E018F5F80930E0179
:1003A00088E290E020910E01FC01208337C0898112
:1003B000882F90E0837099270297B1F483E090E052
:1003C000909311018093100180910E01882331F1E7
:1003D00080910E01815080930E0188E290E020917F
:1003E0000E01FC0120831AC084E090E0909311017B
:1003F0008093100110920E0188E290E020910E018E
:10040000FC0120830BC0109211011092100107C053
:10041000000005C0000003C0000001C00000809182
:1004200010019091110182309105A9F0833091055E
:1004300028F4009749F0019781F014C083309105AA
:1004400071F0049771F00EC088E290E020910E01E7
:10045000FC01208307C0000005C0000003C00000AD
:1004600001C0000000000F90DF91CF910895CF935D
:10047000DF93CDB7DEB781E290E0FC01108282E22B
:1004800090E02FEFFC01208387E290E02FEFFC014A
:10049000208388E290E0FC011082109211011092FA
:0C04A00010010E949000FDCFF894FFCFE7
:1004AC0000000002000000006700000000000700D0
:00000001FF
