:100000000C9446000C9465000C9465000C946500FB
:100010000C9465000C9465000C9465000C946500CC
:100020000C9465000C9465000C9465000C946500BC
:100030000C9465000C9465000C9465000C946500AC
:100040000C9465000C9465000C9465000C9465009C
:100050000C9465000C9465000C9465000C9465008C
:100060000C9465000C9465000C9465000C9465007C
:100070000C9465000C9465000C9465000C9465006C
:100080000C9465000C9465000C94650011241FBE4F
:10009000CFEFD0E4DEBFCDBF11E0A0E0B1E0E2E5FC
:1000A000F2E000E00BBF02C007900D92AE30B10746
:1000B000D9F721E0AEE0B1E001C01D92A031B20756
:1000C000E1F70E940A010C9427010C940000CF93E1
:1000D000DF9300D01F92CDB7DEB789837B836A831D
:1000E00089818A3031F48A819B81BC018DE00E9434
:1000F000670080EC90E0FC018081882F90E08072A6
:100100009927892BB1F386EC90E02981FC012083AB
:1001100080E090E00F900F900F90DF91CF910895C5
:10012000CF93DF931F92CDB7DEB780E290E0FC0162
:1001300080818095898380910E0190910F0182309A
:10014000910511F18330910528F4009749F001974A
:1001500071F041C08330910521F1049779F13BC0E2
:1001600081E090E090930F0180930E0134C089816B
:10017000882319F082E090E002C081E090E0909343
:100180000F0180930E0127C08981882319F483E031
:1001900090E002C082E090E090930F0180930E0106
:1001A0001AC08981882319F084E090E002C083E0BE
:1001B00090E090930F0180930E010DC089818823F8
:1001C00019F481E090E002C084E090E090930F0188
:1001D00080930E01000080910E0190910F018130FB
:1001E000910531F08130910578F0039739F00DC019
:1001F00085E290E025E1FC01208307C085E290E0E4
:100200002AE2FC01208301C0000000000F90DF9172
:10021000CF910895CF93DF93CDB7DEB781E290E021
:10022000FC01108282E290E02FEFFC01208384E247
:1002300090E02FEFFC01208385E290E0FC0110822A
:1002400010920F0110920E010E949000FDCFF894C1
:02025000FFCFDE
:0E025200000000020000000067000000000035
:00000001FF
